:060000000A128A110E280D
:10000800FE00030EF2000408F3000A08F4000A12C6
:100018008A11B9290A128A111128F80183120313C7
:10002800B30183010A128A1119280A128A11F821C8
:100038000A128A110A3083120313A0000030A100AB
:100048003308A800A9012808A2002908A3000A1259
:100058008A111F210A128A11831203132008AA0089
:100068002A08B2000A30A0000030A1003308A80016
:10007800A9012808A2002908A3000A128A11B6209B
:100088000A128A11831203132108AC002008AB005E
:100098000A30A0000030A1002C08A3002B08A20001
:1000A8000A128A111F210A128A11831203132008C7
:1000B800A8002808B1000A30A0000030A1002C08D0
:1000C800A3002B08A2000A128A11B6200A128A116C
:1000D800831203132008A8002808B00032080A1267
:1000E8008A117A210A128A1183120313A800280898
:1000F800AF0031080A128A117A210A128A11831272
:100108000313A8002808AE0030080A128A117A21C1
:100118000A128A1183120313A8002808AD003308B5
:1001280085000A128A1126220A128A1183120313E1
:1001380006189F28A028A828061CA328A428A028B9
:100148000130A8002808B3078618AB28AC281E2859
:10015800861CAF28B028AC280130B3021E280A122A
:100168008A110E2883120313A501A11FBC28BD28DC
:10017800C428A009A109A00A0319A10AA501A50A72
:10018800A31FC728C828D128A209A309A20A0319AE
:10019800A30A0130F5007508A506A601A7012008E5
:1001A80021040319D828D9281029A401A40AE7286A
:1001B80001300310A00DA10DFF3E031DDD28013005
:1001C800F5007508A407A11FEA28EB28DC280130F0
:1001D8000310A60DA70DFF3E031DEC2821082302DE
:1001E800031DF82820082202031CFB28FC280329E9
:1001F8002008A2022108031CA303A302261401302D
:100208000310A10CA00CFF3E031D04290130A40219
:10021800031D0F291029EB2825080319142915296E
:100228001A29A609A709A60A0319A70A2708A100D7
:100238002608A0000800F70183120313A31F25292D
:1002480026292D29A209A309A20A0319A30AF7013D
:10025800F70AA11F302931293629A009A109A00AC6
:100268000319A10A2008210403193B293C296B29F9
:10027800F601F60A4A2901300310A00DA10DFF3E30
:10028800031D40290130F5007508F607A11F4D2907
:100298004E293F2921082302031D54292008220240
:1002A800031C572958295E292008A2022108031C8B
:1002B800A303A30201300310A10CA00CFF3E031DF1
:1002C8005F290130F602031D6A296B294E29770838
:1002D80003196F2970297529A209A309A20A03190C
:1002E800A30A2308A1002208A0000800F70090290B
:1002F8003F30B8290630B8295B30B8294F30B829C3
:100308006630B8296D30B8297D30B8290730B8294A
:100318007F30B8296F30B8297708F500F6017608DC
:10032800003A031998297C297508003A03197C2991
:10033800013A03197E29033A03198029013A03195E
:100348008229073A03198429013A03198629033AAD
:1003580003198829013A03198A290F3A03198C29A4
:10036800013A03198E297C2908000B1DBC29BD29D7
:10037800EF29D329831203132F088700013088003F
:10038800E629831203132E08870002308800E62925
:10039800831203132D08870004308800E6297808A3
:1003A800F000F1017108003A0319DB29E629700809
:1003B800003A0319BE29013A0319C529033A03195A
:1003C800CC29E6290130F00070088312031389074D
:1003D8000B110530810074088A0073088400720EBE
:1003E8008300FE0E7E0E090083160317880189011B
:1003F800831603138501033086008701880189016C
:1004080083120313850186018701880189018316F8
:1004180003130F088F3920388F000F148B170B1711
:100428008B150B108B160B118113033095000110DF
:1004380081100111811181120112053083120313F9
:1004480081000800312AF801F80A442A0230F50030
:100458007508F800442AF801442A7808F500F601DE
:100468007608003A0319392A2F2A7508003A031921
:10047800272A013A03192A2A033A03192F2A2F2A6D
:0204880008006A
:04400E00D420FF3F7C
:00000001FF
